{
  "_format": "hh-sol-artifact-1",
  "contractName": "IPFSTimeNFT",
  "sourceName": "contracts/IPFSTimeNFT.sol",
  "abi": [
    {
      "inputs": [],
      "stateMutability": "nonpayable",
      "type": "constructor"
    },
    {
      "inputs": [
        {
          "internalType": "address",
          "name": "sender",
          "type": "address"
        },
        {
          "internalType": "uint256",
          "name": "tokenId",
          "type": "uint256"
        },
        {
          "internalType": "address",
          "name": "owner",
          "type": "address"
        }
      ],
      "name": "ERC721IncorrectOwner",
      "type": "error"
    },
    {
      "inputs": [
        {
          "internalType": "address",
          "name": "operator",
          "type": "address"
        },
        {
          "internalType": "uint256",
          "name": "tokenId",
          "type": "uint256"
        }
      ],
      "name": "ERC721InsufficientApproval",
      "type": "error"
    },
    {
      "inputs": [
        {
          "internalType": "address",
          "name": "approver",
          "type": "address"
        }
      ],
      "name": "ERC721InvalidApprover",
      "type": "error"
    },
    {
      "inputs": [
        {
          "internalType": "address",
          "name": "operator",
          "type": "address"
        }
      ],
      "name": "ERC721InvalidOperator",
      "type": "error"
    },
    {
      "inputs": [
        {
          "internalType": "address",
          "name": "owner",
          "type": "address"
        }
      ],
      "name": "ERC721InvalidOwner",
      "type": "error"
    },
    {
      "inputs": [
        {
          "internalType": "address",
          "name": "receiver",
          "type": "address"
        }
      ],
      "name": "ERC721InvalidReceiver",
      "type": "error"
    },
    {
      "inputs": [
        {
          "internalType": "address",
          "name": "sender",
          "type": "address"
        }
      ],
      "name": "ERC721InvalidSender",
      "type": "error"
    },
    {
      "inputs": [
        {
          "internalType": "uint256",
          "name": "tokenId",
          "type": "uint256"
        }
      ],
      "name": "ERC721NonexistentToken",
      "type": "error"
    },
    {
      "inputs": [
        {
          "internalType": "address",
          "name": "owner",
          "type": "address"
        }
      ],
      "name": "OwnableInvalidOwner",
      "type": "error"
    },
    {
      "inputs": [
        {
          "internalType": "address",
          "name": "account",
          "type": "address"
        }
      ],
      "name": "OwnableUnauthorizedAccount",
      "type": "error"
    },
    {
      "anonymous": false,
      "inputs": [
        {
          "indexed": true,
          "internalType": "address",
          "name": "owner",
          "type": "address"
        },
        {
          "indexed": true,
          "internalType": "address",
          "name": "approved",
          "type": "address"
        },
        {
          "indexed": true,
          "internalType": "uint256",
          "name": "tokenId",
          "type": "uint256"
        }
      ],
      "name": "Approval",
      "type": "event"
    },
    {
      "anonymous": false,
      "inputs": [
        {
          "indexed": true,
          "internalType": "address",
          "name": "owner",
          "type": "address"
        },
        {
          "indexed": true,
          "internalType": "address",
          "name": "operator",
          "type": "address"
        },
        {
          "indexed": false,
          "internalType": "bool",
          "name": "approved",
          "type": "bool"
        }
      ],
      "name": "ApprovalForAll",
      "type": "event"
    },
    {
      "anonymous": false,
      "inputs": [
        {
          "indexed": true,
          "internalType": "address",
          "name": "previousOwner",
          "type": "address"
        },
        {
          "indexed": true,
          "internalType": "address",
          "name": "newOwner",
          "type": "address"
        }
      ],
      "name": "OwnershipTransferred",
      "type": "event"
    },
    {
      "anonymous": false,
      "inputs": [
        {
          "indexed": true,
          "internalType": "address",
          "name": "from",
          "type": "address"
        },
        {
          "indexed": true,
          "internalType": "address",
          "name": "to",
          "type": "address"
        },
        {
          "indexed": true,
          "internalType": "uint256",
          "name": "tokenId",
          "type": "uint256"
        }
      ],
      "name": "Transfer",
      "type": "event"
    },
    {
      "inputs": [
        {
          "internalType": "address",
          "name": "to",
          "type": "address"
        },
        {
          "internalType": "uint256",
          "name": "tokenId",
          "type": "uint256"
        }
      ],
      "name": "approve",
      "outputs": [],
      "stateMutability": "nonpayable",
      "type": "function"
    },
    {
      "inputs": [
        {
          "internalType": "address",
          "name": "owner",
          "type": "address"
        }
      ],
      "name": "balanceOf",
      "outputs": [
        {
          "internalType": "uint256",
          "name": "",
          "type": "uint256"
        }
      ],
      "stateMutability": "view",
      "type": "function"
    },
    {
      "inputs": [
        {
          "internalType": "uint256",
          "name": "tokenId",
          "type": "uint256"
        }
      ],
      "name": "exists",
      "outputs": [
        {
          "internalType": "bool",
          "name": "",
          "type": "bool"
        }
      ],
      "stateMutability": "view",
      "type": "function"
    },
    {
      "inputs": [
        {
          "internalType": "uint256",
          "name": "tokenId",
          "type": "uint256"
        }
      ],
      "name": "getApproved",
      "outputs": [
        {
          "internalType": "address",
          "name": "",
          "type": "address"
        }
      ],
      "stateMutability": "view",
      "type": "function"
    },
    {
      "inputs": [],
      "name": "getBaseURI",
      "outputs": [
        {
          "internalType": "string",
          "name": "",
          "type": "string"
        }
      ],
      "stateMutability": "view",
      "type": "function"
    },
    {
      "inputs": [
        {
          "internalType": "address",
          "name": "owner",
          "type": "address"
        },
        {
          "internalType": "address",
          "name": "operator",
          "type": "address"
        }
      ],
      "name": "isApprovedForAll",
      "outputs": [
        {
          "internalType": "bool",
          "name": "",
          "type": "bool"
        }
      ],
      "stateMutability": "view",
      "type": "function"
    },
    {
      "inputs": [
        {
          "internalType": "address",
          "name": "to",
          "type": "address"
        },
        {
          "internalType": "string",
          "name": "ipfsHash",
          "type": "string"
        }
      ],
      "name": "mint",
      "outputs": [
        {
          "internalType": "uint256",
          "name": "",
          "type": "uint256"
        }
      ],
      "stateMutability": "nonpayable",
      "type": "function"
    },
    {
      "inputs": [
        {
          "internalType": "address",
          "name": "to",
          "type": "address"
        },
        {
          "internalType": "string[]",
          "name": "ipfsHashes",
          "type": "string[]"
        }
      ],
      "name": "mintBatch",
      "outputs": [
        {
          "internalType": "uint256[]",
          "name": "",
          "type": "uint256[]"
        }
      ],
      "stateMutability": "nonpayable",
      "type": "function"
    },
    {
      "inputs": [],
      "name": "name",
      "outputs": [
        {
          "internalType": "string",
          "name": "",
          "type": "string"
        }
      ],
      "stateMutability": "view",
      "type": "function"
    },
    {
      "inputs": [],
      "name": "owner",
      "outputs": [
        {
          "internalType": "address",
          "name": "",
          "type": "address"
        }
      ],
      "stateMutability": "view",
      "type": "function"
    },
    {
      "inputs": [
        {
          "internalType": "uint256",
          "name": "tokenId",
          "type": "uint256"
        }
      ],
      "name": "ownerOf",
      "outputs": [
        {
          "internalType": "address",
          "name": "",
          "type": "address"
        }
      ],
      "stateMutability": "view",
      "type": "function"
    },
    {
      "inputs": [],
      "name": "renounceOwnership",
      "outputs": [],
      "stateMutability": "nonpayable",
      "type": "function"
    },
    {
      "inputs": [
        {
          "internalType": "address",
          "name": "from",
          "type": "address"
        },
        {
          "internalType": "address",
          "name": "to",
          "type": "address"
        },
        {
          "internalType": "uint256",
          "name": "tokenId",
          "type": "uint256"
        }
      ],
      "name": "safeTransferFrom",
      "outputs": [],
      "stateMutability": "nonpayable",
      "type": "function"
    },
    {
      "inputs": [
        {
          "internalType": "address",
          "name": "from",
          "type": "address"
        },
        {
          "internalType": "address",
          "name": "to",
          "type": "address"
        },
        {
          "internalType": "uint256",
          "name": "tokenId",
          "type": "uint256"
        },
        {
          "internalType": "bytes",
          "name": "data",
          "type": "bytes"
        }
      ],
      "name": "safeTransferFrom",
      "outputs": [],
      "stateMutability": "nonpayable",
      "type": "function"
    },
    {
      "inputs": [
        {
          "internalType": "address",
          "name": "operator",
          "type": "address"
        },
        {
          "internalType": "bool",
          "name": "approved",
          "type": "bool"
        }
      ],
      "name": "setApprovalForAll",
      "outputs": [],
      "stateMutability": "nonpayable",
      "type": "function"
    },
    {
      "inputs": [
        {
          "internalType": "string",
          "name": "newBaseURI",
          "type": "string"
        }
      ],
      "name": "setBaseURI",
      "outputs": [],
      "stateMutability": "nonpayable",
      "type": "function"
    },
    {
      "inputs": [
        {
          "internalType": "uint256",
          "name": "tokenId",
          "type": "uint256"
        },
        {
          "internalType": "string",
          "name": "ipfsHash",
          "type": "string"
        }
      ],
      "name": "setTokenURI",
      "outputs": [],
      "stateMutability": "nonpayable",
      "type": "function"
    },
    {
      "inputs": [
        {
          "internalType": "bytes4",
          "name": "interfaceId",
          "type": "bytes4"
        }
      ],
      "name": "supportsInterface",
      "outputs": [
        {
          "internalType": "bool",
          "name": "",
          "type": "bool"
        }
      ],
      "stateMutability": "view",
      "type": "function"
    },
    {
      "inputs": [],
      "name": "symbol",
      "outputs": [
        {
          "internalType": "string",
          "name": "",
          "type": "string"
        }
      ],
      "stateMutability": "view",
      "type": "function"
    },
    {
      "inputs": [
        {
          "internalType": "uint256",
          "name": "tokenId",
          "type": "uint256"
        }
      ],
      "name": "tokenURI",
      "outputs": [
        {
          "internalType": "string",
          "name": "",
          "type": "string"
        }
      ],
      "stateMutability": "view",
      "type": "function"
    },
    {
      "inputs": [],
      "name": "totalSupply",
      "outputs": [
        {
          "internalType": "uint256",
          "name": "",
          "type": "uint256"
        }
      ],
      "stateMutability": "view",
      "type": "function"
    },
    {
      "inputs": [
        {
          "internalType": "address",
          "name": "from",
          "type": "address"
        },
        {
          "internalType": "address",
          "name": "to",
          "type": "address"
        },
        {
          "internalType": "uint256",
          "name": "tokenId",
          "type": "uint256"
        }
      ],
      "name": "transferFrom",
      "outputs": [],
      "stateMutability": "nonpayable",
      "type": "function"
    },
    {
      "inputs": [
        {
          "internalType": "address",
          "name": "newOwner",
          "type": "address"
        }
      ],
      "name": "transferOwnership",
      "outputs": [],
      "stateMutability": "nonpayable",
      "type": "function"
    }
  ],
  "bytecode": "0x60806040526040518060600160405280602281526020016200315c60229139600990816200002e91906200049d565b503480156200003c57600080fd5b50336040518060400160405280600d81526020017f495046532054696d65204e4654000000000000000000000000000000000000008152506040518060400160405280600581526020017f49544e46540000000000000000000000000000000000000000000000000000008152508160009081620000bb91906200049d565b508060019081620000cd91906200049d565b505050600073ffffffffffffffffffffffffffffffffffffffff168173ffffffffffffffffffffffffffffffffffffffff1603620001455760006040517f1e4fbdf70000000000000000000000000000000000000000000000000000000081526004016200013c9190620005c9565b60405180910390fd5b62000156816200015d60201b60201c565b50620005e6565b6000600660009054906101000a900473ffffffffffffffffffffffffffffffffffffffff16905081600660006101000a81548173ffffffffffffffffffffffffffffffffffffffff021916908373ffffffffffffffffffffffffffffffffffffffff1602179055508173ffffffffffffffffffffffffffffffffffffffff168173ffffffffffffffffffffffffffffffffffffffff167f8be0079c531659141344cd1fd0a4f28419497f9722a3daafe3b4186f6b6457e060405160405180910390a35050565b600081519050919050565b7f4e487b7100000000000000000000000000000000000000000000000000000000600052604160045260246000fd5b7f4e487b7100000000000000000000000000000000000000000000000000000000600052602260045260246000fd5b60006002820490506001821680620002a557607f821691505b602082108103620002bb57620002ba6200025d565b5b50919050565b60008190508160005260206000209050919050565b60006020601f8301049050919050565b600082821b905092915050565b600060088302620003257fffffffffffffffffffffffffffffffffffffffffffffffffffffffffffffffff82620002e6565b620003318683620002e6565b95508019841693508086168417925050509392505050565b6000819050919050565b6000819050919050565b60006200037e62000378620003728462000349565b62000353565b62000349565b9050919050565b6000819050919050565b6200039a836200035d565b620003b2620003a98262000385565b848454620002f3565b825550505050565b600090565b620003c9620003ba565b620003d68184846200038f565b505050565b5b81811015620003fe57620003f2600082620003bf565b600181019050620003dc565b5050565b601f8211156200044d576200041781620002c1565b6200042284620002d6565b8101602085101562000432578190505b6200044a6200044185620002d6565b830182620003db565b50505b505050565b600082821c905092915050565b6000620004726000198460080262000452565b1980831691505092915050565b60006200048d83836200045f565b9150826002028217905092915050565b620004a88262000223565b67ffffffffffffffff811115620004c457620004c36200022e565b5b620004d082546200028c565b620004dd82828562000402565b600060209050601f83116001811462000515576000841562000500578287015190505b6200050c85826200047f565b8655506200057c565b601f1984166200052586620002c1565b60005b828110156200054f5784890151825560018201915060208501945060208101905062000528565b868310156200056f57848901516200056b601f8916826200045f565b8355505b6001600288020188555050505b505050505050565b600073ffffffffffffffffffffffffffffffffffffffff82169050919050565b6000620005b18262000584565b9050919050565b620005c381620005a4565b82525050565b6000602082019050620005e06000830184620005b8565b92915050565b612b6680620005f66000396000f3fe608060405234801561001057600080fd5b506004361061014d5760003560e01c806370a08231116100c3578063b88d4fde1161007c578063b88d4fde1461038a578063c87b56dd146103a6578063d0def521146103d6578063e985e9c514610406578063ed0e31de14610436578063f2fde38b146104665761014d565b806370a08231146102da578063714c53981461030a578063715018a6146103285780638da5cb5b1461033257806395d89b4114610350578063a22cb4651461036e5761014d565b806318160ddd1161011557806318160ddd1461020857806323b872dd1461022657806342842e0e146102425780634f558e791461025e57806355f804b31461028e5780636352211e146102aa5761014d565b806301ffc9a71461015257806306fdde0314610182578063081812fc146101a0578063095ea7b3146101d0578063162094c4146101ec575b600080fd5b61016c60048036038101906101679190611b9c565b610482565b6040516101799190611be4565b60405180910390f35b61018a610564565b6040516101979190611c8f565b60405180910390f35b6101ba60048036038101906101b59190611ce7565b6105f6565b6040516101c79190611d55565b60405180910390f35b6101ea60048036038101906101e59190611d9c565b610612565b005b61020660048036038101906102019190611f11565b610628565b005b61021061063e565b60405161021d9190611f7c565b60405180910390f35b610240600480360381019061023b9190611f97565b610648565b005b61025c60048036038101906102579190611f97565b61074a565b005b61027860048036038101906102739190611ce7565b61076a565b6040516102859190611be4565b60405180910390f35b6102a860048036038101906102a39190611fea565b6107ab565b005b6102c460048036038101906102bf9190611ce7565b6107c6565b6040516102d19190611d55565b60405180910390f35b6102f460048036038101906102ef9190612033565b6107d8565b6040516103019190611f7c565b60405180910390f35b610312610892565b60405161031f9190611c8f565b60405180910390f35b610330610924565b005b61033a610938565b6040516103479190611d55565b60405180910390f35b610358610962565b6040516103659190611c8f565b60405180910390f35b6103886004803603810190610383919061208c565b6109f4565b005b6103a4600480360381019061039f919061216d565b610a0a565b005b6103c060048036038101906103bb9190611ce7565b610a2f565b6040516103cd9190611c8f565b60405180910390f35b6103f060048036038101906103eb91906121f0565b610bb7565b6040516103fd9190611f7c565b60405180910390f35b610420600480360381019061041b919061224c565b610bfe565b60405161042d9190611be4565b60405180910390f35b610450600480360381019061044b9190612372565b610c92565b60405161045d919061248c565b60405180910390f35b610480600480360381019061047b9190612033565b610d7c565b005b60007f80ac58cd000000000000000000000000000000000000000000000000000000007bffffffffffffffffffffffffffffffffffffffffffffffffffffffff1916827bffffffffffffffffffffffffffffffffffffffffffffffffffffffff1916148061054d57507f5b5e139f000000000000000000000000000000000000000000000000000000007bffffffffffffffffffffffffffffffffffffffffffffffffffffffff1916827bffffffffffffffffffffffffffffffffffffffffffffffffffffffff1916145b8061055d575061055c82610e02565b5b9050919050565b606060008054610573906124dd565b80601f016020809104026020016040519081016040528092919081815260200182805461059f906124dd565b80156105ec5780601f106105c1576101008083540402835291602001916105ec565b820191906000526020600020905b8154815290600101906020018083116105cf57829003601f168201915b5050505050905090565b600061060182610e6c565b5061060b82610ef4565b9050919050565b610624828261061f610f31565b610f39565b5050565b610630610f4b565b61063a8282610fd2565b5050565b6000600754905090565b600073ffffffffffffffffffffffffffffffffffffffff168273ffffffffffffffffffffffffffffffffffffffff16036106ba5760006040517f64a0ae920000000000000000000000000000000000000000000000000000000081526004016106b19190611d55565b60405180910390fd5b60006106ce83836106c9610f31565b61106e565b90508373ffffffffffffffffffffffffffffffffffffffff168173ffffffffffffffffffffffffffffffffffffffff1614610744578382826040517f64283d7b00000000000000000000000000000000000000000000000000000000815260040161073b9392919061250e565b60405180910390fd5b50505050565b61076583838360405180602001604052806000815250610a0a565b505050565b60008073ffffffffffffffffffffffffffffffffffffffff1661078c83611288565b73ffffffffffffffffffffffffffffffffffffffff1614159050919050565b6107b3610f4b565b80600990816107c291906126f1565b5050565b60006107d182610e6c565b9050919050565b60008073ffffffffffffffffffffffffffffffffffffffff168273ffffffffffffffffffffffffffffffffffffffff160361084b5760006040517f89c62b640000000000000000000000000000000000000000000000000000000081526004016108429190611d55565b60405180910390fd5b600360008373ffffffffffffffffffffffffffffffffffffffff1673ffffffffffffffffffffffffffffffffffffffff168152602001908152602001600020549050919050565b6060600980546108a1906124dd565b80601f01602080910402602001604051908101604052809291908181526020018280546108cd906124dd565b801561091a5780601f106108ef5761010080835404028352916020019161091a565b820191906000526020600020905b8154815290600101906020018083116108fd57829003601f168201915b5050505050905090565b61092c610f4b565b61093660006112c5565b565b6000600660009054906101000a900473ffffffffffffffffffffffffffffffffffffffff16905090565b606060018054610971906124dd565b80601f016020809104026020016040519081016040528092919081815260200182805461099d906124dd565b80156109ea5780601f106109bf576101008083540402835291602001916109ea565b820191906000526020600020905b8154815290600101906020018083116109cd57829003601f168201915b5050505050905090565b610a066109ff610f31565b838361138b565b5050565b610a15848484610648565b610a29610a20610f31565b858585856114fa565b50505050565b6060600073ffffffffffffffffffffffffffffffffffffffff16610a5283611288565b73ffffffffffffffffffffffffffffffffffffffff1603610aa8576040517f08c379a0000000000000000000000000000000000000000000000000000000008152600401610a9f9061280f565b60405180910390fd5b6000600860008481526020019081526020016000208054610ac8906124dd565b80601f0160208091040260200160405190810160405280929190818152602001828054610af4906124dd565b8015610b415780601f10610b1657610100808354040283529160200191610b41565b820191906000526020600020905b815481529060010190602001808311610b2457829003601f168201915b505050505090506000815111610b8c576040517f08c379a0000000000000000000000000000000000000000000000000000000008152600401610b839061287b565b60405180910390fd5b600981604051602001610ba092919061295a565b604051602081830303815290604052915050919050565b6000610bc1610f4b565b6000600754905060076000815480929190610bdb906129ad565b9190505550610bea84826116ab565b610bf48184610fd2565b8091505092915050565b6000600560008473ffffffffffffffffffffffffffffffffffffffff1673ffffffffffffffffffffffffffffffffffffffff16815260200190815260200160002060008373ffffffffffffffffffffffffffffffffffffffff1673ffffffffffffffffffffffffffffffffffffffff16815260200190815260200160002060009054906101000a900460ff16905092915050565b6060610c9c610f4b565b6000825167ffffffffffffffff811115610cb957610cb8611de6565b5b604051908082528060200260200182016040528015610ce75781602001602082028036833780820191505090505b50905060005b8351811015610d71576000600754905060076000815480929190610d10906129ad565b9190505550610d1f86826116ab565b610d4381868481518110610d3657610d356129f5565b5b6020026020010151610fd2565b80838381518110610d5757610d566129f5565b5b602002602001018181525050508080600101915050610ced565b508091505092915050565b610d84610f4b565b600073ffffffffffffffffffffffffffffffffffffffff168173ffffffffffffffffffffffffffffffffffffffff1603610df65760006040517f1e4fbdf7000000000000000000000000000000000000000000000000000000008152600401610ded9190611d55565b60405180910390fd5b610dff816112c5565b50565b60007f01ffc9a7000000000000000000000000000000000000000000000000000000007bffffffffffffffffffffffffffffffffffffffffffffffffffffffff1916827bffffffffffffffffffffffffffffffffffffffffffffffffffffffff1916149050919050565b600080610e7883611288565b9050600073ffffffffffffffffffffffffffffffffffffffff168173ffffffffffffffffffffffffffffffffffffffff1603610eeb57826040517f7e273289000000000000000000000000000000000000000000000000000000008152600401610ee29190611f7c565b60405180910390fd5b80915050919050565b60006004600083815260200190815260200160002060009054906101000a900473ffffffffffffffffffffffffffffffffffffffff169050919050565b600033905090565b610f4683838360016116c9565b505050565b610f53610f31565b73ffffffffffffffffffffffffffffffffffffffff16610f71610938565b73ffffffffffffffffffffffffffffffffffffffff1614610fd057610f94610f31565b6040517f118cdaa7000000000000000000000000000000000000000000000000000000008152600401610fc79190611d55565b60405180910390fd5b565b600073ffffffffffffffffffffffffffffffffffffffff16610ff383611288565b73ffffffffffffffffffffffffffffffffffffffff1603611049576040517f08c379a00000000000000000000000000000000000000000000000000000000081526004016110409061280f565b60405180910390fd5b8060086000848152602001908152602001600020908161106991906126f1565b505050565b60008061107a84611288565b9050600073ffffffffffffffffffffffffffffffffffffffff168373ffffffffffffffffffffffffffffffffffffffff16146110bc576110bb81848661188e565b5b600073ffffffffffffffffffffffffffffffffffffffff168173ffffffffffffffffffffffffffffffffffffffff161461114d576110fe6000856000806116c9565b6001600360008373ffffffffffffffffffffffffffffffffffffffff1673ffffffffffffffffffffffffffffffffffffffff168152602001908152602001600020600082825403925050819055505b600073ffffffffffffffffffffffffffffffffffffffff168573ffffffffffffffffffffffffffffffffffffffff16146111d0576001600360008773ffffffffffffffffffffffffffffffffffffffff1673ffffffffffffffffffffffffffffffffffffffff168152602001908152602001600020600082825401925050819055505b846002600086815260200190815260200160002060006101000a81548173ffffffffffffffffffffffffffffffffffffffff021916908373ffffffffffffffffffffffffffffffffffffffff160217905550838573ffffffffffffffffffffffffffffffffffffffff168273ffffffffffffffffffffffffffffffffffffffff167fddf252ad1be2c89b69c2b068fc378daa952ba7f163c4a11628f55a4df523b3ef60405160405180910390a4809150509392505050565b60006002600083815260200190815260200160002060009054906101000a900473ffffffffffffffffffffffffffffffffffffffff169050919050565b6000600660009054906101000a900473ffffffffffffffffffffffffffffffffffffffff16905081600660006101000a81548173ffffffffffffffffffffffffffffffffffffffff021916908373ffffffffffffffffffffffffffffffffffffffff1602179055508173ffffffffffffffffffffffffffffffffffffffff168173ffffffffffffffffffffffffffffffffffffffff167f8be0079c531659141344cd1fd0a4f28419497f9722a3daafe3b4186f6b6457e060405160405180910390a35050565b600073ffffffffffffffffffffffffffffffffffffffff168273ffffffffffffffffffffffffffffffffffffffff16036113fc57816040517f5b08ba180000000000000000000000000000000000000000000000000000000081526004016113f39190611d55565b60405180910390fd5b80600560008573ffffffffffffffffffffffffffffffffffffffff1673ffffffffffffffffffffffffffffffffffffffff16815260200190815260200160002060008473ffffffffffffffffffffffffffffffffffffffff1673ffffffffffffffffffffffffffffffffffffffff16815260200190815260200160002060006101000a81548160ff0219169083151502179055508173ffffffffffffffffffffffffffffffffffffffff168373ffffffffffffffffffffffffffffffffffffffff167f17307eab39ab6107e8899845ad3d59bd9653f200f220920489ca2b5937696c31836040516114ed9190611be4565b60405180910390a3505050565b60008373ffffffffffffffffffffffffffffffffffffffff163b11156116a4578273ffffffffffffffffffffffffffffffffffffffff1663150b7a02868685856040518563ffffffff1660e01b81526004016115599493929190612a79565b6020604051808303816000875af192505050801561159557506040513d601f19601f820116820180604052508101906115929190612ada565b60015b611619573d80600081146115c5576040519150601f19603f3d011682016040523d82523d6000602084013e6115ca565b606091505b50600081510361161157836040517f64a0ae920000000000000000000000000000000000000000000000000000000081526004016116089190611d55565b60405180910390fd5b805160208201fd5b63150b7a0260e01b7bffffffffffffffffffffffffffffffffffffffffffffffffffffffff1916817bffffffffffffffffffffffffffffffffffffffffffffffffffffffff1916146116a257836040517f64a0ae920000000000000000000000000000000000000000000000000000000081526004016116999190611d55565b60405180910390fd5b505b5050505050565b6116c5828260405180602001604052806000815250611952565b5050565b80806117025750600073ffffffffffffffffffffffffffffffffffffffff168273ffffffffffffffffffffffffffffffffffffffff1614155b1561183657600061171284610e6c565b9050600073ffffffffffffffffffffffffffffffffffffffff168373ffffffffffffffffffffffffffffffffffffffff161415801561177d57508273ffffffffffffffffffffffffffffffffffffffff168173ffffffffffffffffffffffffffffffffffffffff1614155b8015611790575061178e8184610bfe565b155b156117d257826040517fa9fbf51f0000000000000000000000000000000000000000000000000000000081526004016117c99190611d55565b60405180910390fd5b811561183457838573ffffffffffffffffffffffffffffffffffffffff168273ffffffffffffffffffffffffffffffffffffffff167f8c5be1e5ebec7d5bd14f71427d1e84f3dd0314c0f7b2291e5b200ac8c7c3b92560405160405180910390a45b505b836004600085815260200190815260200160002060006101000a81548173ffffffffffffffffffffffffffffffffffffffff021916908373ffffffffffffffffffffffffffffffffffffffff16021790555050505050565b611899838383611976565b61194d57600073ffffffffffffffffffffffffffffffffffffffff168373ffffffffffffffffffffffffffffffffffffffff160361190e57806040517f7e2732890000000000000000000000000000000000000000000000000000000081526004016119059190611f7c565b60405180910390fd5b81816040517f177e802f000000000000000000000000000000000000000000000000000000008152600401611944929190612b07565b60405180910390fd5b505050565b61195c8383611a37565b611971611967610f31565b60008585856114fa565b505050565b60008073ffffffffffffffffffffffffffffffffffffffff168373ffffffffffffffffffffffffffffffffffffffff1614158015611a2e57508273ffffffffffffffffffffffffffffffffffffffff168473ffffffffffffffffffffffffffffffffffffffff1614806119ef57506119ee8484610bfe565b5b80611a2d57508273ffffffffffffffffffffffffffffffffffffffff16611a1583610ef4565b73ffffffffffffffffffffffffffffffffffffffff16145b5b90509392505050565b600073ffffffffffffffffffffffffffffffffffffffff168273ffffffffffffffffffffffffffffffffffffffff1603611aa95760006040517f64a0ae92000000000000000000000000000000000000000000000000000000008152600401611aa09190611d55565b60405180910390fd5b6000611ab78383600061106e565b9050600073ffffffffffffffffffffffffffffffffffffffff168173ffffffffffffffffffffffffffffffffffffffff1614611b2b5760006040517f73c6ac6e000000000000000000000000000000000000000000000000000000008152600401611b229190611d55565b60405180910390fd5b505050565b6000604051905090565b600080fd5b600080fd5b60007fffffffff0000000000000000000000000000000000000000000000000000000082169050919050565b611b7981611b44565b8114611b8457600080fd5b50565b600081359050611b9681611b70565b92915050565b600060208284031215611bb257611bb1611b3a565b5b6000611bc084828501611b87565b91505092915050565b60008115159050919050565b611bde81611bc9565b82525050565b6000602082019050611bf96000830184611bd5565b92915050565b600081519050919050565b600082825260208201905092915050565b60005b83811015611c39578082015181840152602081019050611c1e565b60008484015250505050565b6000601f19601f8301169050919050565b6000611c6182611bff565b611c6b8185611c0a565b9350611c7b818560208601611c1b565b611c8481611c45565b840191505092915050565b60006020820190508181036000830152611ca98184611c56565b905092915050565b6000819050919050565b611cc481611cb1565b8114611ccf57600080fd5b50565b600081359050611ce181611cbb565b92915050565b600060208284031215611cfd57611cfc611b3a565b5b6000611d0b84828501611cd2565b91505092915050565b600073ffffffffffffffffffffffffffffffffffffffff82169050919050565b6000611d3f82611d14565b9050919050565b611d4f81611d34565b82525050565b6000602082019050611d6a6000830184611d46565b92915050565b611d7981611d34565b8114611d8457600080fd5b50565b600081359050611d9681611d70565b92915050565b60008060408385031215611db357611db2611b3a565b5b6000611dc185828601611d87565b9250506020611dd285828601611cd2565b9150509250929050565b600080fd5b600080fd5b7f4e487b7100000000000000000000000000000000000000000000000000000000600052604160045260246000fd5b611e1e82611c45565b810181811067ffffffffffffffff82111715611e3d57611e3c611de6565b5b80604052505050565b6000611e50611b30565b9050611e5c8282611e15565b919050565b600067ffffffffffffffff821115611e7c57611e7b611de6565b5b611e8582611c45565b9050602081019050919050565b82818337600083830152505050565b6000611eb4611eaf84611e61565b611e46565b905082815260208101848484011115611ed057611ecf611de1565b5b611edb848285611e92565b509392505050565b600082601f830112611ef857611ef7611ddc565b5b8135611f08848260208601611ea1565b91505092915050565b60008060408385031215611f2857611f27611b3a565b5b6000611f3685828601611cd2565b925050602083013567ffffffffffffffff811115611f5757611f56611b3f565b5b611f6385828601611ee3565b9150509250929050565b611f7681611cb1565b82525050565b6000602082019050611f916000830184611f6d565b92915050565b600080600060608486031215611fb057611faf611b3a565b5b6000611fbe86828701611d87565b9350506020611fcf86828701611d87565b9250506040611fe086828701611cd2565b9150509250925092565b60006020828403121561200057611fff611b3a565b5b600082013567ffffffffffffffff81111561201e5761201d611b3f565b5b61202a84828501611ee3565b91505092915050565b60006020828403121561204957612048611b3a565b5b600061205784828501611d87565b91505092915050565b61206981611bc9565b811461207457600080fd5b50565b60008135905061208681612060565b92915050565b600080604083850312156120a3576120a2611b3a565b5b60006120b185828601611d87565b92505060206120c285828601612077565b9150509250929050565b600067ffffffffffffffff8211156120e7576120e6611de6565b5b6120f082611c45565b9050602081019050919050565b600061211061210b846120cc565b611e46565b90508281526020810184848401111561212c5761212b611de1565b5b612137848285611e92565b509392505050565b600082601f83011261215457612153611ddc565b5b81356121648482602086016120fd565b91505092915050565b6000806000806080858703121561218757612186611b3a565b5b600061219587828801611d87565b94505060206121a687828801611d87565b93505060406121b787828801611cd2565b925050606085013567ffffffffffffffff8111156121d8576121d7611b3f565b5b6121e48782880161213f565b91505092959194509250565b6000806040838503121561220757612206611b3a565b5b600061221585828601611d87565b925050602083013567ffffffffffffffff81111561223657612235611b3f565b5b61224285828601611ee3565b9150509250929050565b6000806040838503121561226357612262611b3a565b5b600061227185828601611d87565b925050602061228285828601611d87565b9150509250929050565b600067ffffffffffffffff8211156122a7576122a6611de6565b5b602082029050602081019050919050565b600080fd5b60006122d06122cb8461228c565b611e46565b905080838252602082019050602084028301858111156122f3576122f26122b8565b5b835b8181101561233a57803567ffffffffffffffff81111561231857612317611ddc565b5b8086016123258982611ee3565b855260208501945050506020810190506122f5565b5050509392505050565b600082601f83011261235957612358611ddc565b5b81356123698482602086016122bd565b91505092915050565b6000806040838503121561238957612388611b3a565b5b600061239785828601611d87565b925050602083013567ffffffffffffffff8111156123b8576123b7611b3f565b5b6123c485828601612344565b9150509250929050565b600081519050919050565b600082825260208201905092915050565b6000819050602082019050919050565b61240381611cb1565b82525050565b600061241583836123fa565b60208301905092915050565b6000602082019050919050565b6000612439826123ce565b61244381856123d9565b935061244e836123ea565b8060005b8381101561247f5781516124668882612409565b975061247183612421565b925050600181019050612452565b5085935050505092915050565b600060208201905081810360008301526124a6818461242e565b905092915050565b7f4e487b7100000000000000000000000000000000000000000000000000000000600052602260045260246000fd5b600060028204905060018216806124f557607f821691505b602082108103612508576125076124ae565b5b50919050565b60006060820190506125236000830186611d46565b6125306020830185611f6d565b61253d6040830184611d46565b949350505050565b60008190508160005260206000209050919050565b60006020601f8301049050919050565b600082821b905092915050565b6000600883026125a77fffffffffffffffffffffffffffffffffffffffffffffffffffffffffffffffff8261256a565b6125b1868361256a565b95508019841693508086168417925050509392505050565b6000819050919050565b60006125ee6125e96125e484611cb1565b6125c9565b611cb1565b9050919050565b6000819050919050565b612608836125d3565b61261c612614826125f5565b848454612577565b825550505050565b600090565b612631612624565b61263c8184846125ff565b505050565b5b8181101561266057612655600082612629565b600181019050612642565b5050565b601f8211156126a55761267681612545565b61267f8461255a565b8101602085101561268e578190505b6126a261269a8561255a565b830182612641565b50505b505050565b600082821c905092915050565b60006126c8600019846008026126aa565b1980831691505092915050565b60006126e183836126b7565b9150826002028217905092915050565b6126fa82611bff565b67ffffffffffffffff81111561271357612712611de6565b5b61271d82546124dd565b612728828285612664565b600060209050601f83116001811461275b5760008415612749578287015190505b61275385826126d5565b8655506127bb565b601f19841661276986612545565b60005b828110156127915784890151825560018201915060208501945060208101905061276c565b868310156127ae57848901516127aa601f8916826126b7565b8355505b6001600288020188555050505b505050505050565b7f546f6b656e20646f6573206e6f74206578697374000000000000000000000000600082015250565b60006127f9601483611c0a565b9150612804826127c3565b602082019050919050565b60006020820190508181036000830152612828816127ec565b9050919050565b7f546f6b656e20555249206e6f7420736574000000000000000000000000000000600082015250565b6000612865601183611c0a565b91506128708261282f565b602082019050919050565b6000602082019050818103600083015261289481612858565b9050919050565b600081905092915050565b600081546128b3816124dd565b6128bd818661289b565b945060018216600081146128d857600181146128ed57612920565b60ff1983168652811515820286019350612920565b6128f685612545565b60005b83811015612918578154818901526001820191506020810190506128f9565b838801955050505b50505092915050565b600061293482611bff565b61293e818561289b565b935061294e818560208601611c1b565b80840191505092915050565b600061296682856128a6565b91506129728284612929565b91508190509392505050565b7f4e487b7100000000000000000000000000000000000000000000000000000000600052601160045260246000fd5b60006129b882611cb1565b91507fffffffffffffffffffffffffffffffffffffffffffffffffffffffffffffffff82036129ea576129e961297e565b5b600182019050919050565b7f4e487b7100000000000000000000000000000000000000000000000000000000600052603260045260246000fd5b600081519050919050565b600082825260208201905092915050565b6000612a4b82612a24565b612a558185612a2f565b9350612a65818560208601611c1b565b612a6e81611c45565b840191505092915050565b6000608082019050612a8e6000830187611d46565b612a9b6020830186611d46565b612aa86040830185611f6d565b8181036060830152612aba8184612a40565b905095945050505050565b600081519050612ad481611b70565b92915050565b600060208284031215612af057612aef611b3a565b5b6000612afe84828501612ac5565b91505092915050565b6000604082019050612b1c6000830185611d46565b612b296020830184611f6d565b939250505056fea2646970667358221220c4d718c7c442e317344687d0f6fddc896b3e976258e6a03c52f33a7b8d092c2b64736f6c6343000818003368747470733a2f2f676174657761792e70696e6174612e636c6f75642f697066732f",
  "linkReferences": {},
  "deployedLinkReferences": {}
}