{
  "_format": "hh-sol-artifact-1",
  "contractName": "DynamicTimeNFT",
  "sourceName": "contracts/DynamicTimeNFT.sol",
  "abi": [
    {
      "inputs": [],
      "stateMutability": "nonpayable",
      "type": "constructor"
    },
    {
      "inputs": [
        {
          "internalType": "address",
          "name": "sender",
          "type": "address"
        },
        {
          "internalType": "uint256",
          "name": "tokenId",
          "type": "uint256"
        },
        {
          "internalType": "address",
          "name": "owner",
          "type": "address"
        }
      ],
      "name": "ERC721IncorrectOwner",
      "type": "error"
    },
    {
      "inputs": [
        {
          "internalType": "address",
          "name": "operator",
          "type": "address"
        },
        {
          "internalType": "uint256",
          "name": "tokenId",
          "type": "uint256"
        }
      ],
      "name": "ERC721InsufficientApproval",
      "type": "error"
    },
    {
      "inputs": [
        {
          "internalType": "address",
          "name": "approver",
          "type": "address"
        }
      ],
      "name": "ERC721InvalidApprover",
      "type": "error"
    },
    {
      "inputs": [
        {
          "internalType": "address",
          "name": "operator",
          "type": "address"
        }
      ],
      "name": "ERC721InvalidOperator",
      "type": "error"
    },
    {
      "inputs": [
        {
          "internalType": "address",
          "name": "owner",
          "type": "address"
        }
      ],
      "name": "ERC721InvalidOwner",
      "type": "error"
    },
    {
      "inputs": [
        {
          "internalType": "address",
          "name": "receiver",
          "type": "address"
        }
      ],
      "name": "ERC721InvalidReceiver",
      "type": "error"
    },
    {
      "inputs": [
        {
          "internalType": "address",
          "name": "sender",
          "type": "address"
        }
      ],
      "name": "ERC721InvalidSender",
      "type": "error"
    },
    {
      "inputs": [
        {
          "internalType": "uint256",
          "name": "tokenId",
          "type": "uint256"
        }
      ],
      "name": "ERC721NonexistentToken",
      "type": "error"
    },
    {
      "anonymous": false,
      "inputs": [
        {
          "indexed": true,
          "internalType": "address",
          "name": "owner",
          "type": "address"
        },
        {
          "indexed": true,
          "internalType": "address",
          "name": "approved",
          "type": "address"
        },
        {
          "indexed": true,
          "internalType": "uint256",
          "name": "tokenId",
          "type": "uint256"
        }
      ],
      "name": "Approval",
      "type": "event"
    },
    {
      "anonymous": false,
      "inputs": [
        {
          "indexed": true,
          "internalType": "address",
          "name": "owner",
          "type": "address"
        },
        {
          "indexed": true,
          "internalType": "address",
          "name": "operator",
          "type": "address"
        },
        {
          "indexed": false,
          "internalType": "bool",
          "name": "approved",
          "type": "bool"
        }
      ],
      "name": "ApprovalForAll",
      "type": "event"
    },
    {
      "anonymous": false,
      "inputs": [
        {
          "indexed": true,
          "internalType": "address",
          "name": "from",
          "type": "address"
        },
        {
          "indexed": true,
          "internalType": "address",
          "name": "to",
          "type": "address"
        },
        {
          "indexed": true,
          "internalType": "uint256",
          "name": "tokenId",
          "type": "uint256"
        }
      ],
      "name": "Transfer",
      "type": "event"
    },
    {
      "inputs": [
        {
          "internalType": "address",
          "name": "to",
          "type": "address"
        },
        {
          "internalType": "uint256",
          "name": "tokenId",
          "type": "uint256"
        }
      ],
      "name": "approve",
      "outputs": [],
      "stateMutability": "nonpayable",
      "type": "function"
    },
    {
      "inputs": [
        {
          "internalType": "address",
          "name": "owner",
          "type": "address"
        }
      ],
      "name": "balanceOf",
      "outputs": [
        {
          "internalType": "uint256",
          "name": "",
          "type": "uint256"
        }
      ],
      "stateMutability": "view",
      "type": "function"
    },
    {
      "inputs": [
        {
          "internalType": "uint256",
          "name": "tokenId",
          "type": "uint256"
        }
      ],
      "name": "getApproved",
      "outputs": [
        {
          "internalType": "address",
          "name": "",
          "type": "address"
        }
      ],
      "stateMutability": "view",
      "type": "function"
    },
    {
      "inputs": [
        {
          "internalType": "address",
          "name": "owner",
          "type": "address"
        },
        {
          "internalType": "address",
          "name": "operator",
          "type": "address"
        }
      ],
      "name": "isApprovedForAll",
      "outputs": [
        {
          "internalType": "bool",
          "name": "",
          "type": "bool"
        }
      ],
      "stateMutability": "view",
      "type": "function"
    },
    {
      "inputs": [
        {
          "internalType": "address",
          "name": "to",
          "type": "address"
        }
      ],
      "name": "mint",
      "outputs": [
        {
          "internalType": "uint256",
          "name": "",
          "type": "uint256"
        }
      ],
      "stateMutability": "nonpayable",
      "type": "function"
    },
    {
      "inputs": [],
      "name": "name",
      "outputs": [
        {
          "internalType": "string",
          "name": "",
          "type": "string"
        }
      ],
      "stateMutability": "view",
      "type": "function"
    },
    {
      "inputs": [
        {
          "internalType": "uint256",
          "name": "tokenId",
          "type": "uint256"
        }
      ],
      "name": "ownerOf",
      "outputs": [
        {
          "internalType": "address",
          "name": "",
          "type": "address"
        }
      ],
      "stateMutability": "view",
      "type": "function"
    },
    {
      "inputs": [
        {
          "internalType": "address",
          "name": "from",
          "type": "address"
        },
        {
          "internalType": "address",
          "name": "to",
          "type": "address"
        },
        {
          "internalType": "uint256",
          "name": "tokenId",
          "type": "uint256"
        }
      ],
      "name": "safeTransferFrom",
      "outputs": [],
      "stateMutability": "nonpayable",
      "type": "function"
    },
    {
      "inputs": [
        {
          "internalType": "address",
          "name": "from",
          "type": "address"
        },
        {
          "internalType": "address",
          "name": "to",
          "type": "address"
        },
        {
          "internalType": "uint256",
          "name": "tokenId",
          "type": "uint256"
        },
        {
          "internalType": "bytes",
          "name": "data",
          "type": "bytes"
        }
      ],
      "name": "safeTransferFrom",
      "outputs": [],
      "stateMutability": "nonpayable",
      "type": "function"
    },
    {
      "inputs": [
        {
          "internalType": "address",
          "name": "operator",
          "type": "address"
        },
        {
          "internalType": "bool",
          "name": "approved",
          "type": "bool"
        }
      ],
      "name": "setApprovalForAll",
      "outputs": [],
      "stateMutability": "nonpayable",
      "type": "function"
    },
    {
      "inputs": [
        {
          "internalType": "bytes4",
          "name": "interfaceId",
          "type": "bytes4"
        }
      ],
      "name": "supportsInterface",
      "outputs": [
        {
          "internalType": "bool",
          "name": "",
          "type": "bool"
        }
      ],
      "stateMutability": "view",
      "type": "function"
    },
    {
      "inputs": [],
      "name": "symbol",
      "outputs": [
        {
          "internalType": "string",
          "name": "",
          "type": "string"
        }
      ],
      "stateMutability": "view",
      "type": "function"
    },
    {
      "inputs": [
        {
          "internalType": "uint256",
          "name": "tokenId",
          "type": "uint256"
        }
      ],
      "name": "tokenURI",
      "outputs": [
        {
          "internalType": "string",
          "name": "",
          "type": "string"
        }
      ],
      "stateMutability": "view",
      "type": "function"
    },
    {
      "inputs": [
        {
          "internalType": "address",
          "name": "from",
          "type": "address"
        },
        {
          "internalType": "address",
          "name": "to",
          "type": "address"
        },
        {
          "internalType": "uint256",
          "name": "tokenId",
          "type": "uint256"
        }
      ],
      "name": "transferFrom",
      "outputs": [],
      "stateMutability": "nonpayable",
      "type": "function"
    }
  ],
  "bytecode": "0x60806040523480156200001157600080fd5b506040518060400160405280601081526020017f44796e616d69632054696d65204e4654000000000000000000000000000000008152506040518060400160405280600581526020017f44544e465400000000000000000000000000000000000000000000000000000081525081600090816200008f919062000324565b508060019081620000a1919062000324565b5050506200040b565b600081519050919050565b7f4e487b7100000000000000000000000000000000000000000000000000000000600052604160045260246000fd5b7f4e487b7100000000000000000000000000000000000000000000000000000000600052602260045260246000fd5b600060028204905060018216806200012c57607f821691505b602082108103620001425762000141620000e4565b5b50919050565b60008190508160005260206000209050919050565b60006020601f8301049050919050565b600082821b905092915050565b600060088302620001ac7fffffffffffffffffffffffffffffffffffffffffffffffffffffffffffffffff826200016d565b620001b886836200016d565b95508019841693508086168417925050509392505050565b6000819050919050565b6000819050919050565b600062000205620001ff620001f984620001d0565b620001da565b620001d0565b9050919050565b6000819050919050565b6200022183620001e4565b6200023962000230826200020c565b8484546200017a565b825550505050565b600090565b6200025062000241565b6200025d81848462000216565b505050565b5b8181101562000285576200027960008262000246565b60018101905062000263565b5050565b601f821115620002d4576200029e8162000148565b620002a9846200015d565b81016020851015620002b9578190505b620002d1620002c8856200015d565b83018262000262565b50505b505050565b600082821c905092915050565b6000620002f960001984600802620002d9565b1980831691505092915050565b6000620003148383620002e6565b9150826002028217905092915050565b6200032f82620000aa565b67ffffffffffffffff8111156200034b576200034a620000b5565b5b62000357825462000113565b6200036482828562000289565b600060209050601f8311600181146200039c576000841562000387578287015190505b62000393858262000306565b86555062000403565b601f198416620003ac8662000148565b60005b82811015620003d657848901518255600182019150602085019450602081019050620003af565b86831015620003f65784890151620003f2601f891682620002e6565b8355505b6001600288020188555050505b505050505050565b612fcb806200041b6000396000f3fe608060405234801561001057600080fd5b50600436106100ea5760003560e01c80636a6278421161008c578063a22cb46511610066578063a22cb4651461026f578063b88d4fde1461028b578063c87b56dd146102a7578063e985e9c5146102d7576100ea565b80636a627842146101f157806370a082311461022157806395d89b4114610251576100ea565b8063095ea7b3116100c8578063095ea7b31461016d57806323b872dd1461018957806342842e0e146101a55780636352211e146101c1576100ea565b806301ffc9a7146100ef57806306fdde031461011f578063081812fc1461013d575b600080fd5b61010960048036038101906101049190611a0b565b610307565b6040516101169190611a53565b60405180910390f35b6101276103e9565b6040516101349190611afe565b60405180910390f35b61015760048036038101906101529190611b56565b61047b565b6040516101649190611bc4565b60405180910390f35b61018760048036038101906101829190611c0b565b610497565b005b6101a3600480360381019061019e9190611c4b565b6104ad565b005b6101bf60048036038101906101ba9190611c4b565b6105af565b005b6101db60048036038101906101d69190611b56565b6105cf565b6040516101e89190611bc4565b60405180910390f35b61020b60048036038101906102069190611c9e565b6105e1565b6040516102189190611cda565b60405180910390f35b61023b60048036038101906102369190611c9e565b610614565b6040516102489190611cda565b60405180910390f35b6102596106ce565b6040516102669190611afe565b60405180910390f35b61028960048036038101906102849190611d21565b610760565b005b6102a560048036038101906102a09190611e96565b610776565b005b6102c160048036038101906102bc9190611b56565b61079b565b6040516102ce9190611afe565b60405180910390f35b6102f160048036038101906102ec9190611f19565b610844565b6040516102fe9190611a53565b60405180910390f35b60007f80ac58cd000000000000000000000000000000000000000000000000000000007bffffffffffffffffffffffffffffffffffffffffffffffffffffffff1916827bffffffffffffffffffffffffffffffffffffffffffffffffffffffff191614806103d257507f5b5e139f000000000000000000000000000000000000000000000000000000007bffffffffffffffffffffffffffffffffffffffffffffffffffffffff1916827bffffffffffffffffffffffffffffffffffffffffffffffffffffffff1916145b806103e257506103e1826108d8565b5b9050919050565b6060600080546103f890611f88565b80601f016020809104026020016040519081016040528092919081815260200182805461042490611f88565b80156104715780601f1061044657610100808354040283529160200191610471565b820191906000526020600020905b81548152906001019060200180831161045457829003601f168201915b5050505050905090565b600061048682610942565b50610490826109ca565b9050919050565b6104a982826104a4610a07565b610a0f565b5050565b600073ffffffffffffffffffffffffffffffffffffffff168273ffffffffffffffffffffffffffffffffffffffff160361051f5760006040517f64a0ae920000000000000000000000000000000000000000000000000000000081526004016105169190611bc4565b60405180910390fd5b6000610533838361052e610a07565b610a21565b90508373ffffffffffffffffffffffffffffffffffffffff168173ffffffffffffffffffffffffffffffffffffffff16146105a9578382826040517f64283d7b0000000000000000000000000000000000000000000000000000000081526004016105a093929190611fb9565b60405180910390fd5b50505050565b6105ca83838360405180602001604052806000815250610776565b505050565b60006105da82610942565b9050919050565b6000806006549050600660008154809291906105fc9061201f565b919050555061060b8382610c3b565b80915050919050565b60008073ffffffffffffffffffffffffffffffffffffffff168273ffffffffffffffffffffffffffffffffffffffff16036106875760006040517f89c62b6400000000000000000000000000000000000000000000000000000000815260040161067e9190611bc4565b60405180910390fd5b600360008373ffffffffffffffffffffffffffffffffffffffff1673ffffffffffffffffffffffffffffffffffffffff168152602001908152602001600020549050919050565b6060600180546106dd90611f88565b80601f016020809104026020016040519081016040528092919081815260200182805461070990611f88565b80156107565780601f1061072b57610100808354040283529160200191610756565b820191906000526020600020905b81548152906001019060200180831161073957829003601f168201915b5050505050905090565b61077261076b610a07565b8383610c59565b5050565b6107818484846104ad565b61079561078c610a07565b85858585610dc8565b50505050565b60606107a682610f79565b6107e5576040517f08c379a00000000000000000000000000000000000000000000000000000000081526004016107dc906120b3565b60405180910390fd5b61081e6107f183610fba565b6107f9611088565b60405160200161080a9291906122b1565b60405160208183030381529060405261119c565b60405160200161082e9190612358565b6040516020818303038152906040529050919050565b6000600560008473ffffffffffffffffffffffffffffffffffffffff1673ffffffffffffffffffffffffffffffffffffffff16815260200190815260200160002060008373ffffffffffffffffffffffffffffffffffffffff1673ffffffffffffffffffffffffffffffffffffffff16815260200190815260200160002060009054906101000a900460ff16905092915050565b60007f01ffc9a7000000000000000000000000000000000000000000000000000000007bffffffffffffffffffffffffffffffffffffffffffffffffffffffff1916827bffffffffffffffffffffffffffffffffffffffffffffffffffffffff1916149050919050565b60008061094e836111c9565b9050600073ffffffffffffffffffffffffffffffffffffffff168173ffffffffffffffffffffffffffffffffffffffff16036109c157826040517f7e2732890000000000000000000000000000000000000000000000000000000081526004016109b89190611cda565b60405180910390fd5b80915050919050565b60006004600083815260200190815260200160002060009054906101000a900473ffffffffffffffffffffffffffffffffffffffff169050919050565b600033905090565b610a1c8383836001611206565b505050565b600080610a2d846111c9565b9050600073ffffffffffffffffffffffffffffffffffffffff168373ffffffffffffffffffffffffffffffffffffffff1614610a6f57610a6e8184866113cb565b5b600073ffffffffffffffffffffffffffffffffffffffff168173ffffffffffffffffffffffffffffffffffffffff1614610b0057610ab1600085600080611206565b6001600360008373ffffffffffffffffffffffffffffffffffffffff1673ffffffffffffffffffffffffffffffffffffffff168152602001908152602001600020600082825403925050819055505b600073ffffffffffffffffffffffffffffffffffffffff168573ffffffffffffffffffffffffffffffffffffffff1614610b83576001600360008773ffffffffffffffffffffffffffffffffffffffff1673ffffffffffffffffffffffffffffffffffffffff168152602001908152602001600020600082825401925050819055505b846002600086815260200190815260200160002060006101000a81548173ffffffffffffffffffffffffffffffffffffffff021916908373ffffffffffffffffffffffffffffffffffffffff160217905550838573ffffffffffffffffffffffffffffffffffffffff168273ffffffffffffffffffffffffffffffffffffffff167fddf252ad1be2c89b69c2b068fc378daa952ba7f163c4a11628f55a4df523b3ef60405160405180910390a4809150509392505050565b610c5582826040518060200160405280600081525061148f565b5050565b600073ffffffffffffffffffffffffffffffffffffffff168273ffffffffffffffffffffffffffffffffffffffff1603610cca57816040517f5b08ba18000000000000000000000000000000000000000000000000000000008152600401610cc19190611bc4565b60405180910390fd5b80600560008573ffffffffffffffffffffffffffffffffffffffff1673ffffffffffffffffffffffffffffffffffffffff16815260200190815260200160002060008473ffffffffffffffffffffffffffffffffffffffff1673ffffffffffffffffffffffffffffffffffffffff16815260200190815260200160002060006101000a81548160ff0219169083151502179055508173ffffffffffffffffffffffffffffffffffffffff168373ffffffffffffffffffffffffffffffffffffffff167f17307eab39ab6107e8899845ad3d59bd9653f200f220920489ca2b5937696c3183604051610dbb9190611a53565b60405180910390a3505050565b60008373ffffffffffffffffffffffffffffffffffffffff163b1115610f72578273ffffffffffffffffffffffffffffffffffffffff1663150b7a02868685856040518563ffffffff1660e01b8152600401610e2794939291906123cf565b6020604051808303816000875af1925050508015610e6357506040513d601f19601f82011682018060405250810190610e609190612430565b60015b610ee7573d8060008114610e93576040519150601f19603f3d011682016040523d82523d6000602084013e610e98565b606091505b506000815103610edf57836040517f64a0ae92000000000000000000000000000000000000000000000000000000008152600401610ed69190611bc4565b60405180910390fd5b805160208201fd5b63150b7a0260e01b7bffffffffffffffffffffffffffffffffffffffffffffffffffffffff1916817bffffffffffffffffffffffffffffffffffffffffffffffffffffffff191614610f7057836040517f64a0ae92000000000000000000000000000000000000000000000000000000008152600401610f679190611bc4565b60405180910390fd5b505b5050505050565b60008073ffffffffffffffffffffffffffffffffffffffff16610f9b836111c9565b73ffffffffffffffffffffffffffffffffffffffff1614159050919050565b606060006001610fc9846114b3565b01905060008167ffffffffffffffff811115610fe857610fe7611d6b565b5b6040519080825280601f01601f19166020018201604052801561101a5781602001600182028036833780820191505090505b509050600082602083010190505b60011561107d578080600190039150507f3031323334353637383961626364656600000000000000000000000000000000600a86061a8153600a85816110715761107061245d565b5b04945060008503611028575b819350505050919050565b6060600042905060006018610e10836110a1919061248c565b6110ab91906124bd565b90506000603c80846110bd919061248c565b6110c791906124bd565b90506000603c846110d891906124bd565b90506000610168600f856110ec91906124ee565b6110f691906124bd565b905061117361110482610fba565b611126610168603c856111179190612530565b61112191906124bd565b610fba565b61112f87611606565b61113887611606565b61114187611606565b61114a8b610fba565b60405160200161115f96959493929190612d1c565b60405160208183030381529060405261119c565b6040516020016111839190612e9c565b6040516020818303038152906040529550505050505090565b60606111c282604051806060016040528060408152602001612f56604091396001611651565b9050919050565b60006002600083815260200190815260200160002060009054906101000a900473ffffffffffffffffffffffffffffffffffffffff169050919050565b808061123f5750600073ffffffffffffffffffffffffffffffffffffffff168273ffffffffffffffffffffffffffffffffffffffff1614155b1561137357600061124f84610942565b9050600073ffffffffffffffffffffffffffffffffffffffff168373ffffffffffffffffffffffffffffffffffffffff16141580156112ba57508273ffffffffffffffffffffffffffffffffffffffff168173ffffffffffffffffffffffffffffffffffffffff1614155b80156112cd57506112cb8184610844565b155b1561130f57826040517fa9fbf51f0000000000000000000000000000000000000000000000000000000081526004016113069190611bc4565b60405180910390fd5b811561137157838573ffffffffffffffffffffffffffffffffffffffff168273ffffffffffffffffffffffffffffffffffffffff167f8c5be1e5ebec7d5bd14f71427d1e84f3dd0314c0f7b2291e5b200ac8c7c3b92560405160405180910390a45b505b836004600085815260200190815260200160002060006101000a81548173ffffffffffffffffffffffffffffffffffffffff021916908373ffffffffffffffffffffffffffffffffffffffff16021790555050505050565b6113d68383836117e5565b61148a57600073ffffffffffffffffffffffffffffffffffffffff168373ffffffffffffffffffffffffffffffffffffffff160361144b57806040517f7e2732890000000000000000000000000000000000000000000000000000000081526004016114429190611cda565b60405180910390fd5b81816040517f177e802f000000000000000000000000000000000000000000000000000000008152600401611481929190612ebe565b60405180910390fd5b505050565b61149983836118a6565b6114ae6114a4610a07565b6000858585610dc8565b505050565b600080600090507a184f03e93ff9f4daa797ed6e38ed64bf6a1f0100000000000000008310611511577a184f03e93ff9f4daa797ed6e38ed64bf6a1f01000000000000000083816115075761150661245d565b5b0492506040810190505b6d04ee2d6d415b85acef8100000000831061154e576d04ee2d6d415b85acef810000000083816115445761154361245d565b5b0492506020810190505b662386f26fc10000831061157d57662386f26fc1000083816115735761157261245d565b5b0492506010810190505b6305f5e10083106115a6576305f5e100838161159c5761159b61245d565b5b0492506008810190505b61271083106115cb5761271083816115c1576115c061245d565b5b0492506004810190505b606483106115ee57606483816115e4576115e361245d565b5b0492506002810190505b600a83106115fd576001810190505b80915050919050565b6060600a8210156116405761161a82610fba565b60405160200161162a9190612f33565b604051602081830303815290604052905061164c565b61164982610fba565b90505b919050565b60606000845103611673576040518060200160405280600081525090506117de565b6000826116a557600360028651600461168c91906124ee565b6116969190612530565b6116a0919061248c565b6116cc565b6003600286516116b59190612530565b6116bf919061248c565b60046116cb91906124ee565b5b905060008167ffffffffffffffff8111156116ea576116e9611d6b565b5b6040519080825280601f01601f19166020018201604052801561171c5781602001600182028036833780820191505090505b50905060018501602082018788518901602081018051600082525b82841015611792576003840193508351603f8160121c168701518653600186019550603f81600c1c168701518653600186019550603f8160061c168701518653600186019550603f8116870151865360018601955050611737565b80825289156117d25760038c5106600181146117b557600281146117c8576117d0565b603d6001870353603d60028703536117d0565b603d60018703535b505b50505050505080925050505b9392505050565b60008073ffffffffffffffffffffffffffffffffffffffff168373ffffffffffffffffffffffffffffffffffffffff161415801561189d57508273ffffffffffffffffffffffffffffffffffffffff168473ffffffffffffffffffffffffffffffffffffffff16148061185e575061185d8484610844565b5b8061189c57508273ffffffffffffffffffffffffffffffffffffffff16611884836109ca565b73ffffffffffffffffffffffffffffffffffffffff16145b5b90509392505050565b600073ffffffffffffffffffffffffffffffffffffffff168273ffffffffffffffffffffffffffffffffffffffff16036119185760006040517f64a0ae9200000000000000000000000000000000000000000000000000000000815260040161190f9190611bc4565b60405180910390fd5b600061192683836000610a21565b9050600073ffffffffffffffffffffffffffffffffffffffff168173ffffffffffffffffffffffffffffffffffffffff161461199a5760006040517f73c6ac6e0000000000000000000000000000000000000000000000000000000081526004016119919190611bc4565b60405180910390fd5b505050565b6000604051905090565b600080fd5b600080fd5b60007fffffffff0000000000000000000000000000000000000000000000000000000082169050919050565b6119e8816119b3565b81146119f357600080fd5b50565b600081359050611a05816119df565b92915050565b600060208284031215611a2157611a206119a9565b5b6000611a2f848285016119f6565b91505092915050565b60008115159050919050565b611a4d81611a38565b82525050565b6000602082019050611a686000830184611a44565b92915050565b600081519050919050565b600082825260208201905092915050565b60005b83811015611aa8578082015181840152602081019050611a8d565b60008484015250505050565b6000601f19601f8301169050919050565b6000611ad082611a6e565b611ada8185611a79565b9350611aea818560208601611a8a565b611af381611ab4565b840191505092915050565b60006020820190508181036000830152611b188184611ac5565b905092915050565b6000819050919050565b611b3381611b20565b8114611b3e57600080fd5b50565b600081359050611b5081611b2a565b92915050565b600060208284031215611b6c57611b6b6119a9565b5b6000611b7a84828501611b41565b91505092915050565b600073ffffffffffffffffffffffffffffffffffffffff82169050919050565b6000611bae82611b83565b9050919050565b611bbe81611ba3565b82525050565b6000602082019050611bd96000830184611bb5565b92915050565b611be881611ba3565b8114611bf357600080fd5b50565b600081359050611c0581611bdf565b92915050565b60008060408385031215611c2257611c216119a9565b5b6000611c3085828601611bf6565b9250506020611c4185828601611b41565b9150509250929050565b600080600060608486031215611c6457611c636119a9565b5b6000611c7286828701611bf6565b9350506020611c8386828701611bf6565b9250506040611c9486828701611b41565b9150509250925092565b600060208284031215611cb457611cb36119a9565b5b6000611cc284828501611bf6565b91505092915050565b611cd481611b20565b82525050565b6000602082019050611cef6000830184611ccb565b92915050565b611cfe81611a38565b8114611d0957600080fd5b50565b600081359050611d1b81611cf5565b92915050565b60008060408385031215611d3857611d376119a9565b5b6000611d4685828601611bf6565b9250506020611d5785828601611d0c565b9150509250929050565b600080fd5b600080fd5b7f4e487b7100000000000000000000000000000000000000000000000000000000600052604160045260246000fd5b611da382611ab4565b810181811067ffffffffffffffff82111715611dc257611dc1611d6b565b5b80604052505050565b6000611dd561199f565b9050611de18282611d9a565b919050565b600067ffffffffffffffff821115611e0157611e00611d6b565b5b611e0a82611ab4565b9050602081019050919050565b82818337600083830152505050565b6000611e39611e3484611de6565b611dcb565b905082815260208101848484011115611e5557611e54611d66565b5b611e60848285611e17565b509392505050565b600082601f830112611e7d57611e7c611d61565b5b8135611e8d848260208601611e26565b91505092915050565b60008060008060808587031215611eb057611eaf6119a9565b5b6000611ebe87828801611bf6565b9450506020611ecf87828801611bf6565b9350506040611ee087828801611b41565b925050606085013567ffffffffffffffff811115611f0157611f006119ae565b5b611f0d87828801611e68565b91505092959194509250565b60008060408385031215611f3057611f2f6119a9565b5b6000611f3e85828601611bf6565b9250506020611f4f85828601611bf6565b9150509250929050565b7f4e487b7100000000000000000000000000000000000000000000000000000000600052602260045260246000fd5b60006002820490506001821680611fa057607f821691505b602082108103611fb357611fb2611f59565b5b50919050565b6000606082019050611fce6000830186611bb5565b611fdb6020830185611ccb565b611fe86040830184611bb5565b949350505050565b7f4e487b7100000000000000000000000000000000000000000000000000000000600052601160045260246000fd5b600061202a82611b20565b91507fffffffffffffffffffffffffffffffffffffffffffffffffffffffffffffffff820361205c5761205b611ff0565b5b600182019050919050565b7f546f6b656e20646f6573206e6f74206578697374000000000000000000000000600082015250565b600061209d601483611a79565b91506120a882612067565b602082019050919050565b600060208201905081810360008301526120cc81612090565b9050919050565b600081905092915050565b7f7b226e616d65223a202244796e616d69632054696d65204e4654202300000000600082015250565b6000612114601c836120d3565b915061211f826120de565b601c82019050919050565b600061213582611a6e565b61213f81856120d3565b935061214f818560208601611a8a565b80840191505092915050565b7f222c000000000000000000000000000000000000000000000000000000000000600082015250565b60006121916002836120d3565b915061219c8261215b565b600282019050919050565b7f226465736372697074696f6e223a2022416e204e465420746861742073686f7760008201527f73207468652063757272656e7420626c6f636b636861696e2074696d65222c00602082015250565b6000612203603f836120d3565b915061220e826121a7565b603f82019050919050565b7f22696d616765223a202200000000000000000000000000000000000000000000600082015250565b600061224f600a836120d3565b915061225a82612219565b600a82019050919050565b7f227d000000000000000000000000000000000000000000000000000000000000600082015250565b600061229b6002836120d3565b91506122a682612265565b600282019050919050565b60006122bc82612107565b91506122c8828561212a565b91506122d382612184565b91506122de826121f6565b91506122e982612242565b91506122f5828461212a565b91506123008261228e565b91508190509392505050565b7f646174613a6170706c69636174696f6e2f6a736f6e3b6261736536342c000000600082015250565b6000612342601d836120d3565b915061234d8261230c565b601d82019050919050565b600061236382612335565b915061236f828461212a565b915081905092915050565b600081519050919050565b600082825260208201905092915050565b60006123a18261237a565b6123ab8185612385565b93506123bb818560208601611a8a565b6123c481611ab4565b840191505092915050565b60006080820190506123e46000830187611bb5565b6123f16020830186611bb5565b6123fe6040830185611ccb565b81810360608301526124108184612396565b905095945050505050565b60008151905061242a816119df565b92915050565b600060208284031215612446576124456119a9565b5b60006124548482850161241b565b91505092915050565b7f4e487b7100000000000000000000000000000000000000000000000000000000600052601260045260246000fd5b600061249782611b20565b91506124a283611b20565b9250826124b2576124b161245d565b5b828204905092915050565b60006124c882611b20565b91506124d383611b20565b9250826124e3576124e261245d565b5b828206905092915050565b60006124f982611b20565b915061250483611b20565b925082820261251281611b20565b9150828204841483151761252957612528611ff0565b5b5092915050565b600061253b82611b20565b915061254683611b20565b925082820190508082111561255e5761255d611ff0565b5b92915050565b7f3c7376672077696474683d2234303022206865696768743d223430302220786d60008201527f6c6e733d22687474703a2f2f7777772e77332e6f72672f323030302f7376672260208201527f3e00000000000000000000000000000000000000000000000000000000000000604082015250565b60006125e66041836120d3565b91506125f182612564565b604182019050919050565b7f3c646566733e3c6c696e6561724772616469656e742069643d2262672220783160008201527f3d223025222079313d223025222078323d2231303025222079323d223130302560208201527f223e000000000000000000000000000000000000000000000000000000000000604082015250565b600061267e6042836120d3565b9150612689826125fc565b604282019050919050565b7f3c73746f70206f66667365743d22302522207374796c653d2273746f702d636f60008201527f6c6f723a68736c28000000000000000000000000000000000000000000000000602082015250565b60006126f06028836120d3565b91506126fb82612694565b602882019050919050565b7f2c3730252c343025293b73746f702d6f7061636974793a3122202f3e00000000600082015250565b600061273c601c836120d3565b915061274782612706565b601c82019050919050565b7f3c73746f70206f66667365743d223130302522207374796c653d2273746f702d60008201527f636f6c6f723a68736c2800000000000000000000000000000000000000000000602082015250565b60006127ae602a836120d3565b91506127b982612752565b602a82019050919050565b7f2c3730252c363025293b73746f702d6f7061636974793a3122202f3e00000000600082015250565b60006127fa601c836120d3565b9150612805826127c4565b601c82019050919050565b7f3c2f6c696e6561724772616469656e743e3c2f646566733e0000000000000000600082015250565b60006128466018836120d3565b915061285182612810565b601882019050919050565b7f3c726563742077696474683d2234303022206865696768743d2234303022206660008201527f696c6c3d2275726c282362672922202f3e000000000000000000000000000000602082015250565b60006128b86031836120d3565b91506128c38261285c565b603182019050919050565b7f3c636972636c652063783d22323030222063793d223230302220723d2231323060008201527f222066696c6c3d226e6f6e6522207374726f6b653d227768697465222073747260208201527f6f6b652d77696474683d223422206f7061636974793d22302e33222f3e000000604082015250565b6000612950605d836120d3565b915061295b826128ce565b605d82019050919050565b7f3c7465787420783d223230302220793d223138302220746578742d616e63686f60008201527f723d226d6964646c652220666f6e742d66616d696c793d226d6f6e6f7370616360208201527f652220666f6e742d73697a653d223332222066696c6c3d22776869746522206660408201527f6f6e742d7765696768743d22626f6c64223e0000000000000000000000000000606082015250565b6000612a0e6072836120d3565b9150612a1982612966565b607282019050919050565b7f3a00000000000000000000000000000000000000000000000000000000000000600082015250565b6000612a5a6001836120d3565b9150612a6582612a24565b600182019050919050565b7f3c2f746578743e00000000000000000000000000000000000000000000000000600082015250565b6000612aa66007836120d3565b9150612ab182612a70565b600782019050919050565b7f3c7465787420783d223230302220793d223232302220746578742d616e63686f60008201527f723d226d6964646c652220666f6e742d66616d696c793d226d6f6e6f7370616360208201527f652220666f6e742d73697a653d223136222066696c6c3d22776869746522206f60408201527f7061636974793d22302e38223e00000000000000000000000000000000000000606082015250565b6000612b64606d836120d3565b9150612b6f82612abc565b606d82019050919050565b7f426c6f636b2054696d653a200000000000000000000000000000000000000000600082015250565b6000612bb0600c836120d3565b9150612bbb82612b7a565b600c82019050919050565b7f3c7465787420783d223230302220793d223238302220746578742d616e63686f60008201527f723d226d6964646c652220666f6e742d66616d696c793d226d6f6e6f7370616360208201527f652220666f6e742d73697a653d223134222066696c6c3d22776869746522206f60408201527f7061636974793d22302e36223e00000000000000000000000000000000000000606082015250565b6000612c6e606d836120d3565b9150612c7982612bc6565b606d82019050919050565b7f44796e616d69632054696d65204e465400000000000000000000000000000000600082015250565b6000612cba6010836120d3565b9150612cc582612c84565b601082019050919050565b7f3c2f7376673e0000000000000000000000000000000000000000000000000000600082015250565b6000612d066006836120d3565b9150612d1182612cd0565b600682019050919050565b6000612d27826125d9565b9150612d3282612671565b9150612d3d826126e3565b9150612d49828961212a565b9150612d548261272f565b9150612d5f826127a1565b9150612d6b828861212a565b9150612d76826127ed565b9150612d8182612839565b9150612d8c826128ab565b9150612d9782612943565b9150612da282612a01565b9150612dae828761212a565b9150612db982612a4d565b9150612dc5828661212a565b9150612dd082612a4d565b9150612ddc828561212a565b9150612de782612a99565b9150612df282612b57565b9150612dfd82612ba3565b9150612e09828461212a565b9150612e1482612a99565b9150612e1f82612c61565b9150612e2a82612cad565b9150612e3582612a99565b9150612e4082612cf9565b9150819050979650505050505050565b7f646174613a696d6167652f7376672b786d6c3b6261736536342c000000000000600082015250565b6000612e86601a836120d3565b9150612e9182612e50565b601a82019050919050565b6000612ea782612e79565b9150612eb3828461212a565b915081905092915050565b6000604082019050612ed36000830185611bb5565b612ee06020830184611ccb565b9392505050565b7f3000000000000000000000000000000000000000000000000000000000000000600082015250565b6000612f1d6001836120d3565b9150612f2882612ee7565b600182019050919050565b6000612f3e82612f10565b9150612f4a828461212a565b91508190509291505056fe4142434445464748494a4b4c4d4e4f505152535455565758595a6162636465666768696a6b6c6d6e6f707172737475767778797a303132333435363738392b2fa2646970667358221220756add887a0340894f7402025fd9a115000089bbe573b7476cd6a41b68ad406764736f6c63430008180033",
  "linkReferences": {},
  "deployedLinkReferences": {}
}